{
  "contractName": "Allowable",
  "abi": [
    {
      "anonymous": false,
      "inputs": [
        {
          "indexed": true,
          "internalType": "address",
          "name": "_who",
          "type": "address"
        },
        {
          "indexed": false,
          "internalType": "address",
          "name": "_by",
          "type": "address"
        },
        {
          "indexed": false,
          "internalType": "uint256",
          "name": "_oldBalance",
          "type": "uint256"
        },
        {
          "indexed": false,
          "internalType": "uint256",
          "name": "_newBalance",
          "type": "uint256"
        }
      ],
      "name": "AllowanceChanged",
      "type": "event"
    },
    {
      "anonymous": false,
      "inputs": [
        {
          "indexed": true,
          "internalType": "address",
          "name": "previousOwner",
          "type": "address"
        },
        {
          "indexed": true,
          "internalType": "address",
          "name": "newOwner",
          "type": "address"
        }
      ],
      "name": "OwnershipTransferred",
      "type": "event"
    },
    {
      "inputs": [],
      "name": "owner",
      "outputs": [
        {
          "internalType": "address",
          "name": "",
          "type": "address"
        }
      ],
      "stateMutability": "view",
      "type": "function"
    },
    {
      "inputs": [],
      "name": "renounceOwnership",
      "outputs": [],
      "stateMutability": "nonpayable",
      "type": "function"
    },
    {
      "inputs": [
        {
          "internalType": "address",
          "name": "newOwner",
          "type": "address"
        }
      ],
      "name": "transferOwnership",
      "outputs": [],
      "stateMutability": "nonpayable",
      "type": "function"
    },
    {
      "inputs": [
        {
          "internalType": "address",
          "name": "_who",
          "type": "address"
        },
        {
          "internalType": "uint256",
          "name": "_allowance",
          "type": "uint256"
        }
      ],
      "name": "setAllowance",
      "outputs": [],
      "stateMutability": "nonpayable",
      "type": "function"
    }
  ],
  "bytecode": "0x608060405234801561001057600080fd5b5061002d61002261003260201b60201c565b61003a60201b60201c565b6100fe565b600033905090565b60008060009054906101000a900473ffffffffffffffffffffffffffffffffffffffff169050816000806101000a81548173ffffffffffffffffffffffffffffffffffffffff021916908373ffffffffffffffffffffffffffffffffffffffff1602179055508173ffffffffffffffffffffffffffffffffffffffff168173ffffffffffffffffffffffffffffffffffffffff167f8be0079c531659141344cd1fd0a4f28419497f9722a3daafe3b4186f6b6457e060405160405180910390a35050565b6107298061010d6000396000f3fe608060405234801561001057600080fd5b506004361061004c5760003560e01c8063310ec4a714610051578063715018a61461006d5780638da5cb5b14610077578063f2fde38b14610095575b600080fd5b61006b600480360381019061006691906104ce565b6100b1565b005b610075610206565b005b61007f61028e565b60405161008c919061056e565b60405180910390f35b6100af60048036038101906100aa91906104a5565b6102b7565b005b6100b96103af565b73ffffffffffffffffffffffffffffffffffffffff166100d761028e565b73ffffffffffffffffffffffffffffffffffffffff161461012d576040517f08c379a0000000000000000000000000000000000000000000000000000000008152600401610124906105e0565b60405180910390fd5b8173ffffffffffffffffffffffffffffffffffffffff167f3691d1a86d99355e52b689ca70a7bdf6d80763237a6aa06e5fa43964eac7244b33600160008673ffffffffffffffffffffffffffffffffffffffff1673ffffffffffffffffffffffffffffffffffffffff16815260200190815260200160002054846040516101b693929190610589565b60405180910390a280600160008473ffffffffffffffffffffffffffffffffffffffff1673ffffffffffffffffffffffffffffffffffffffff168152602001908152602001600020819055505050565b61020e6103af565b73ffffffffffffffffffffffffffffffffffffffff1661022c61028e565b73ffffffffffffffffffffffffffffffffffffffff1614610282576040517f08c379a0000000000000000000000000000000000000000000000000000000008152600401610279906105e0565b60405180910390fd5b61028c60006103b7565b565b60008060009054906101000a900473ffffffffffffffffffffffffffffffffffffffff16905090565b6102bf6103af565b73ffffffffffffffffffffffffffffffffffffffff166102dd61028e565b73ffffffffffffffffffffffffffffffffffffffff1614610333576040517f08c379a000000000000000000000000000000000000000000000000000000000815260040161032a906105e0565b60405180910390fd5b600073ffffffffffffffffffffffffffffffffffffffff168173ffffffffffffffffffffffffffffffffffffffff1614156103a3576040517f08c379a000000000000000000000000000000000000000000000000000000000815260040161039a906105c0565b60405180910390fd5b6103ac816103b7565b50565b600033905090565b60008060009054906101000a900473ffffffffffffffffffffffffffffffffffffffff169050816000806101000a81548173ffffffffffffffffffffffffffffffffffffffff021916908373ffffffffffffffffffffffffffffffffffffffff1602179055508173ffffffffffffffffffffffffffffffffffffffff168173ffffffffffffffffffffffffffffffffffffffff167f8be0079c531659141344cd1fd0a4f28419497f9722a3daafe3b4186f6b6457e060405160405180910390a35050565b60008135905061048a816106c5565b92915050565b60008135905061049f816106dc565b92915050565b6000602082840312156104b757600080fd5b60006104c58482850161047b565b91505092915050565b600080604083850312156104e157600080fd5b60006104ef8582860161047b565b925050602061050085828601610490565b9150509250929050565b61051381610611565b82525050565b6000610526602683610600565b91506105318261064d565b604082019050919050565b6000610549602083610600565b91506105548261069c565b602082019050919050565b61056881610643565b82525050565b6000602082019050610583600083018461050a565b92915050565b600060608201905061059e600083018661050a565b6105ab602083018561055f565b6105b8604083018461055f565b949350505050565b600060208201905081810360008301526105d981610519565b9050919050565b600060208201905081810360008301526105f98161053c565b9050919050565b600082825260208201905092915050565b600061061c82610623565b9050919050565b600073ffffffffffffffffffffffffffffffffffffffff82169050919050565b6000819050919050565b7f4f776e61626c653a206e6577206f776e657220697320746865207a65726f206160008201527f6464726573730000000000000000000000000000000000000000000000000000602082015250565b7f4f776e61626c653a2063616c6c6572206973206e6f7420746865206f776e6572600082015250565b6106ce81610611565b81146106d957600080fd5b50565b6106e581610643565b81146106f057600080fd5b5056fea264697066735822122024c49e40c17876c4a4ebc72b3bf7aba960ad2fe592954accb9c484290616eccf64736f6c63430008010033",
  "immutableReferences": {},
  "source": "//SPDX-License-Identifier: MIT\n\npragma solidity ^0.8.0;\n\n/**\n * @dev Ownable contract from OpenZeppelin is providing access mechanism where\n * there is an account (an owner) that can be granted exclusive access to\n * specific functions by 'onlyOwner' modifier.\n */\nimport { Ownable } from \"@openzeppelin/contracts/access/Ownable.sol\";\n\n/**\n * @dev Allowable implements mechanism to control access to any countable goods by\n * 'onlyAllowed' modifier.\n */\ncontract Allowable is Ownable {\n    mapping (address => uint) private allowance; // allowance ledger\n\n    event AllowanceChanged(address indexed _who, address _by, uint _oldBalance, uint _newBalance);\n\n    /**\n     * @dev Allows owner or anyone with enough allowance to call specified functions\n     */\n    modifier onlyAllowed(uint _amount) {\n        require(msg.sender == owner() || allowance[msg.sender] >= _amount, \"Allowable: You are not allowed\");\n        _;\n    }\n\n    /**\n     * @dev Sets allowance to specified amount, only owner may call it\n     */\n    function setAllowance(address _who, uint _allowance) public onlyOwner {\n        emit AllowanceChanged(_who, msg.sender, allowance[_who], _allowance);\n        allowance[_who] = _allowance;\n    }\n\n    /**\n     * @dev Reduces allowance by specified amount\n     * @param _amount Amount of ether allowance to reduce\n     */\n    function reduceAllowance(address _who, uint _amount) internal onlyAllowed(_amount) {\n        require(_amount <= allowance[msg.sender], \"Allowable: Amount to reduce allowance is higher than allowance\");\n        emit AllowanceChanged(_who, msg.sender, allowance[_who], allowance[_who] -= _amount);\n        allowance[msg.sender] -= _amount;\n    }\n}",
  "sourcePath": "/Users/mateusz/Documents/GitHub/shared-wallet/contracts/Allowable.sol",
  "compiler": {
    "name": "solc",
    "version": "0.8.1+commit.df193b15.Emscripten.clang"
  },
  "schemaVersion": "3.4.4",
  "updatedAt": "2022-01-18T15:39:26.237Z",
  "devdoc": {
    "details": "Allowable implements mechanism to control access to any countable goods by 'onlyAllowed' modifier.",
    "kind": "dev",
    "methods": {
      "owner()": {
        "details": "Returns the address of the current owner."
      },
      "renounceOwnership()": {
        "details": "Leaves the contract without owner. It will not be possible to call `onlyOwner` functions anymore. Can only be called by the current owner. NOTE: Renouncing ownership will leave the contract without an owner, thereby removing any functionality that is only available to the owner."
      },
      "setAllowance(address,uint256)": {
        "details": "Sets allowance to specified amount, only owner may call it"
      },
      "transferOwnership(address)": {
        "details": "Transfers ownership of the contract to a new account (`newOwner`). Can only be called by the current owner."
      }
    },
    "version": 1
  },
  "userdoc": {
    "kind": "user",
    "methods": {},
    "version": 1
  }
}