{
  "contractName": "Wallet",
  "abi": [
    {
      "anonymous": false,
      "inputs": [
        {
          "indexed": true,
          "internalType": "address",
          "name": "_who",
          "type": "address"
        },
        {
          "indexed": false,
          "internalType": "address",
          "name": "_by",
          "type": "address"
        },
        {
          "indexed": false,
          "internalType": "uint256",
          "name": "_oldBalance",
          "type": "uint256"
        },
        {
          "indexed": false,
          "internalType": "uint256",
          "name": "_newBalance",
          "type": "uint256"
        }
      ],
      "name": "AllowanceChanged",
      "type": "event"
    },
    {
      "anonymous": false,
      "inputs": [
        {
          "indexed": true,
          "internalType": "address",
          "name": "_from",
          "type": "address"
        },
        {
          "indexed": false,
          "internalType": "uint256",
          "name": "_amount",
          "type": "uint256"
        }
      ],
      "name": "FundsReceived",
      "type": "event"
    },
    {
      "anonymous": false,
      "inputs": [
        {
          "indexed": true,
          "internalType": "address",
          "name": "_to",
          "type": "address"
        },
        {
          "indexed": false,
          "internalType": "uint256",
          "name": "_amount",
          "type": "uint256"
        }
      ],
      "name": "FundsSent",
      "type": "event"
    },
    {
      "anonymous": false,
      "inputs": [
        {
          "indexed": true,
          "internalType": "address",
          "name": "previousOwner",
          "type": "address"
        },
        {
          "indexed": true,
          "internalType": "address",
          "name": "newOwner",
          "type": "address"
        }
      ],
      "name": "OwnershipTransferred",
      "type": "event"
    },
    {
      "inputs": [],
      "name": "owner",
      "outputs": [
        {
          "internalType": "address",
          "name": "",
          "type": "address"
        }
      ],
      "stateMutability": "view",
      "type": "function",
      "constant": true
    },
    {
      "inputs": [
        {
          "internalType": "address",
          "name": "_who",
          "type": "address"
        },
        {
          "internalType": "uint256",
          "name": "_allowance",
          "type": "uint256"
        }
      ],
      "name": "setAllowance",
      "outputs": [],
      "stateMutability": "nonpayable",
      "type": "function"
    },
    {
      "inputs": [
        {
          "internalType": "address",
          "name": "newOwner",
          "type": "address"
        }
      ],
      "name": "transferOwnership",
      "outputs": [],
      "stateMutability": "nonpayable",
      "type": "function"
    },
    {
      "stateMutability": "payable",
      "type": "receive",
      "payable": true
    },
    {
      "inputs": [],
      "name": "getWalletBalance",
      "outputs": [
        {
          "internalType": "uint256",
          "name": "",
          "type": "uint256"
        }
      ],
      "stateMutability": "view",
      "type": "function",
      "constant": true
    },
    {
      "inputs": [
        {
          "internalType": "address payable",
          "name": "_to",
          "type": "address"
        },
        {
          "internalType": "uint256",
          "name": "_amount",
          "type": "uint256"
        }
      ],
      "name": "withdrawFunds",
      "outputs": [],
      "stateMutability": "nonpayable",
      "type": "function"
    },
    {
      "inputs": [],
      "name": "depositFunds",
      "outputs": [],
      "stateMutability": "payable",
      "type": "function",
      "payable": true
    },
    {
      "inputs": [],
      "name": "renounceOwnership",
      "outputs": [],
      "stateMutability": "view",
      "type": "function",
      "constant": true
    }
  ],
  "bytecode": "0x608060405234801561001057600080fd5b5061002d61002261003260201b60201c565b61003a60201b60201c565b6100fe565b600033905090565b60008060009054906101000a900473ffffffffffffffffffffffffffffffffffffffff169050816000806101000a81548173ffffffffffffffffffffffffffffffffffffffff021916908373ffffffffffffffffffffffffffffffffffffffff1602179055508173ffffffffffffffffffffffffffffffffffffffff168173ffffffffffffffffffffffffffffffffffffffff167f8be0079c531659141344cd1fd0a4f28419497f9722a3daafe3b4186f6b6457e060405160405180910390a35050565b61105e8061010d6000396000f3fe6080604052600436106100745760003560e01c80638da5cb5b1161004e5780638da5cb5b14610139578063c107532914610164578063e2c41dbc1461018d578063f2fde38b14610197576100c9565b8063310ec4a7146100ce578063329a27e7146100f7578063715018a614610122576100c9565b366100c9573373ffffffffffffffffffffffffffffffffffffffff167f8e47b87b0ef542cdfa1659c551d88bad38aa7f452d2bbb349ab7530dfec8be8f346040516100bf9190610d9e565b60405180910390a2005b600080fd5b3480156100da57600080fd5b506100f560048036038101906100f09190610b60565b6101c0565b005b34801561010357600080fd5b5061010c610315565b6040516101199190610d9e565b60405180910390f35b34801561012e57600080fd5b5061013761031d565b005b34801561014557600080fd5b5061014e6103d4565b60405161015b9190610c8c565b60405180910390f35b34801561017057600080fd5b5061018b60048036038101906101869190610b24565b6103fd565b005b6101956105df565b005b3480156101a357600080fd5b506101be60048036038101906101b99190610afb565b610676565b005b6101c861076e565b73ffffffffffffffffffffffffffffffffffffffff166101e66103d4565b73ffffffffffffffffffffffffffffffffffffffff161461023c576040517f08c379a000000000000000000000000000000000000000000000000000000000815260040161023390610d3e565b60405180910390fd5b8173ffffffffffffffffffffffffffffffffffffffff167f3691d1a86d99355e52b689ca70a7bdf6d80763237a6aa06e5fa43964eac7244b33600160008673ffffffffffffffffffffffffffffffffffffffff1673ffffffffffffffffffffffffffffffffffffffff16815260200190815260200160002054846040516102c593929190610ca7565b60405180910390a280600160008473ffffffffffffffffffffffffffffffffffffffff1673ffffffffffffffffffffffffffffffffffffffff168152602001908152602001600020819055505050565b600047905090565b61032561076e565b73ffffffffffffffffffffffffffffffffffffffff166103436103d4565b73ffffffffffffffffffffffffffffffffffffffff1614610399576040517f08c379a000000000000000000000000000000000000000000000000000000000815260040161039090610d3e565b60405180910390fd5b6040517f08c379a00000000000000000000000000000000000000000000000000000000081526004016103cb90610d1e565b60405180910390fd5b60008060009054906101000a900473ffffffffffffffffffffffffffffffffffffffff16905090565b806104066103d4565b73ffffffffffffffffffffffffffffffffffffffff163373ffffffffffffffffffffffffffffffffffffffff16148061047e575080600160003373ffffffffffffffffffffffffffffffffffffffff1673ffffffffffffffffffffffffffffffffffffffff1681526020019081526020016000205410155b6104bd576040517f08c379a00000000000000000000000000000000000000000000000000000000081526004016104b490610d5e565b60405180910390fd5b47821115610500576040517f08c379a00000000000000000000000000000000000000000000000000000000081526004016104f790610cfe565b60405180910390fd5b6105086103d4565b73ffffffffffffffffffffffffffffffffffffffff163373ffffffffffffffffffffffffffffffffffffffff1614610545576105443383610776565b5b8273ffffffffffffffffffffffffffffffffffffffff167f8c8f77105ce8ee99e391fd4da140bc14a988eb4cf878b240bfed9b10ae7c67588360405161058b9190610d9e565b60405180910390a28273ffffffffffffffffffffffffffffffffffffffff166108fc839081150290604051600060405180830381858888f193505050501580156105d9573d6000803e3d6000fd5b50505050565b3073ffffffffffffffffffffffffffffffffffffffff166108fc349081150290604051600060405180830381858888f19350505050158015610625573d6000803e3d6000fd5b503373ffffffffffffffffffffffffffffffffffffffff167f8e47b87b0ef542cdfa1659c551d88bad38aa7f452d2bbb349ab7530dfec8be8f3460405161066c9190610d9e565b60405180910390a2565b61067e61076e565b73ffffffffffffffffffffffffffffffffffffffff1661069c6103d4565b73ffffffffffffffffffffffffffffffffffffffff16146106f2576040517f08c379a00000000000000000000000000000000000000000000000000000000081526004016106e990610d3e565b60405180910390fd5b600073ffffffffffffffffffffffffffffffffffffffff168173ffffffffffffffffffffffffffffffffffffffff161415610762576040517f08c379a000000000000000000000000000000000000000000000000000000000815260040161075990610cde565b60405180910390fd5b61076b816109f8565b50565b600033905090565b8061077f6103d4565b73ffffffffffffffffffffffffffffffffffffffff163373ffffffffffffffffffffffffffffffffffffffff1614806107f7575080600160003373ffffffffffffffffffffffffffffffffffffffff1673ffffffffffffffffffffffffffffffffffffffff1681526020019081526020016000205410155b610836576040517f08c379a000000000000000000000000000000000000000000000000000000000815260040161082d90610d5e565b60405180910390fd5b600160003373ffffffffffffffffffffffffffffffffffffffff1673ffffffffffffffffffffffffffffffffffffffff168152602001908152602001600020548211156108b8576040517f08c379a00000000000000000000000000000000000000000000000000000000081526004016108af90610d7e565b60405180910390fd5b8273ffffffffffffffffffffffffffffffffffffffff167f3691d1a86d99355e52b689ca70a7bdf6d80763237a6aa06e5fa43964eac7244b33600160008773ffffffffffffffffffffffffffffffffffffffff1673ffffffffffffffffffffffffffffffffffffffff1681526020019081526020016000205485600160008973ffffffffffffffffffffffffffffffffffffffff1673ffffffffffffffffffffffffffffffffffffffff16815260200190815260200160002060008282546109809190610dca565b92505081905560405161099593929190610ca7565b60405180910390a281600160003373ffffffffffffffffffffffffffffffffffffffff1673ffffffffffffffffffffffffffffffffffffffff16815260200190815260200160002060008282546109ec9190610dca565b92505081905550505050565b60008060009054906101000a900473ffffffffffffffffffffffffffffffffffffffff169050816000806101000a81548173ffffffffffffffffffffffffffffffffffffffff021916908373ffffffffffffffffffffffffffffffffffffffff1602179055508173ffffffffffffffffffffffffffffffffffffffff168173ffffffffffffffffffffffffffffffffffffffff167f8be0079c531659141344cd1fd0a4f28419497f9722a3daafe3b4186f6b6457e060405160405180910390a35050565b600081359050610acb81610fe3565b92915050565b600081359050610ae081610ffa565b92915050565b600081359050610af581611011565b92915050565b600060208284031215610b0d57600080fd5b6000610b1b84828501610abc565b91505092915050565b60008060408385031215610b3757600080fd5b6000610b4585828601610ad1565b9250506020610b5685828601610ae6565b9150509250929050565b60008060408385031215610b7357600080fd5b6000610b8185828601610abc565b9250506020610b9285828601610ae6565b9150509250929050565b610ba581610dfe565b82525050565b6000610bb8602683610db9565b9150610bc382610e7b565b604082019050919050565b6000610bdb601883610db9565b9150610be682610eca565b602082019050919050565b6000610bfe602c83610db9565b9150610c0982610ef3565b604082019050919050565b6000610c21602083610db9565b9150610c2c82610f42565b602082019050919050565b6000610c44601e83610db9565b9150610c4f82610f6b565b602082019050919050565b6000610c67603e83610db9565b9150610c7282610f94565b604082019050919050565b610c8681610e42565b82525050565b6000602082019050610ca16000830184610b9c565b92915050565b6000606082019050610cbc6000830186610b9c565b610cc96020830185610c7d565b610cd66040830184610c7d565b949350505050565b60006020820190508181036000830152610cf781610bab565b9050919050565b60006020820190508181036000830152610d1781610bce565b9050919050565b60006020820190508181036000830152610d3781610bf1565b9050919050565b60006020820190508181036000830152610d5781610c14565b9050919050565b60006020820190508181036000830152610d7781610c37565b9050919050565b60006020820190508181036000830152610d9781610c5a565b9050919050565b6000602082019050610db36000830184610c7d565b92915050565b600082825260208201905092915050565b6000610dd582610e42565b9150610de083610e42565b925082821015610df357610df2610e4c565b5b828203905092915050565b6000610e0982610e22565b9050919050565b6000610e1b82610e22565b9050919050565b600073ffffffffffffffffffffffffffffffffffffffff82169050919050565b6000819050919050565b7f4e487b7100000000000000000000000000000000000000000000000000000000600052601160045260246000fd5b7f4f776e61626c653a206e6577206f776e657220697320746865207a65726f206160008201527f6464726573730000000000000000000000000000000000000000000000000000602082015250565b7f57616c6c65743a204e6f7420656e6f7567682066756e64730000000000000000600082015250565b7f57616c6c65743a204f776e6572736869702072656e6f756e63696e672069732060008201527f6e6f7420616c6c6f7765642e0000000000000000000000000000000000000000602082015250565b7f4f776e61626c653a2063616c6c6572206973206e6f7420746865206f776e6572600082015250565b7f416c6c6f7761626c653a20596f7520617265206e6f7420616c6c6f7765640000600082015250565b7f416c6c6f7761626c653a20416d6f756e7420746f2072656475636520616c6c6f60008201527f77616e636520697320686967686572207468616e20616c6c6f77616e63650000602082015250565b610fec81610dfe565b8114610ff757600080fd5b50565b61100381610e10565b811461100e57600080fd5b50565b61101a81610e42565b811461102557600080fd5b5056fea2646970667358221220c0e02a70d9c0bcc371668756dba8381059e5e0d0fd6787d223a461455238ded164736f6c63430008010033",
  "immutableReferences": {},
  "source": "//SPDX-License-Identifier: MIT\n\npragma solidity ^0.8.0;\n\nimport \"./Allowable.sol\";\n\ncontract Wallet is Allowable {\n\n    event FundsReceived(address indexed _from, uint _amount);\n    event FundsSent(address indexed _to, uint _amount);\n\n    /**\n     * @dev Get contract balance\n     */\n    function getWalletBalance() external view returns(uint) {\n        return address(this).balance;\n    }\n\n    /**\n     * @dev Withdraws wallet funds to specified address, only allowed (owner or\n     * depending on allowance mapping) users may call it\n     * @param _to Address to receive funds\n     * @param _amount Amount of funds to withdraw\n     */\n    function withdrawFunds(address payable _to, uint _amount) external onlyAllowed(_amount) {\n        require(_amount <= address(this).balance, \"Wallet: Not enough funds\"); // validate input\n        if (msg.sender != owner()) {\n            reduceAllowance(msg.sender, _amount); // reduce allowance to avoid double-spending\n        } // do not reduce allowance of owner\n        emit FundsSent(_to, _amount);\n        _to.transfer(_amount);\n    }\n\n    /**\n     * @dev Deposit sender Ether funds in wallet\n     */\n    function depositFunds() payable public {\n        payable(this).transfer(msg.value);\n        emit FundsReceived(msg.sender, msg.value);\n    }\n\n    /**\n     * @dev Fallback function to receive sender Ether\n     */\n    receive() external payable {\n        emit FundsReceived(msg.sender, msg.value);\n    }\n\n    /**\n     * @dev Deprecating renounceOwnership() from Ownable.sol, due there is no point to use it\n     */\n    function renounceOwnership() override public view onlyOwner {\n        revert(\"Wallet: Ownership renouncing is not allowed.\");\n    }\n}",
  "sourcePath": "/Users/mateusz/Documents/GitHub/shared-wallet/contracts/Wallet.sol",
  "compiler": {
    "name": "solc",
    "version": "0.8.1+commit.df193b15.Emscripten.clang"
  },
  "schemaVersion": "3.4.4",
  "updatedAt": "2022-01-19T11:48:09.897Z",
  "networkType": "ethereum",
  "devdoc": {
    "kind": "dev",
    "methods": {
      "depositFunds()": {
        "details": "Deposit sender Ether funds in wallet"
      },
      "getWalletBalance()": {
        "details": "Get contract balance"
      },
      "owner()": {
        "details": "Returns the address of the current owner."
      },
      "renounceOwnership()": {
        "details": "Deprecating renounceOwnership() from Ownable.sol, due there is no point to use it"
      },
      "setAllowance(address,uint256)": {
        "details": "Sets allowance to specified amount, only owner may call it"
      },
      "transferOwnership(address)": {
        "details": "Transfers ownership of the contract to a new account (`newOwner`). Can only be called by the current owner."
      },
      "withdrawFunds(address,uint256)": {
        "details": "Withdraws wallet funds to specified address, only allowed (owner or depending on allowance mapping) users may call it",
        "params": {
          "_amount": "Amount of funds to withdraw",
          "_to": "Address to receive funds"
        }
      }
    },
    "version": 1
  },
  "userdoc": {
    "kind": "user",
    "methods": {},
    "version": 1
  }
}